:100000000AC011C010C00FC00EC00DC00CC00BC084
:100010000AC009C008C011271FBFCFE5D0E0DEBF6E
:10002000CDBF2BD0DBC0ECCF61E082E082C04DE0E1
:1000300000004150E9F70895CF93DF93C7E1D0E086
:1000400061E082E0A8D0F3DF60E082E0A4D0EFDFDF
:10005000C150D10BA9F7C7E1D0E060E082E09BD0AE
:10006000E6DF60E082E097D0E2DFC150D10BA9F774
:100070008CE290E0DF91CF9124C054D0D5DFDCDF5B
:10008000FECFCF93DF931F93CDB7DEB78250910B96
:10009000A1F0880F991F8150910BCF5FDF4F98839C
:1000A000C150D040CF5FDF4F4881882309F44A9583
:1000B0008A958823E9F74423D1F70F91DF91CF91F7
:1000C00008952F933F93CF93DF9300D0CDB7DEB742
:1000D000282F392FCE5FDF4F18831A93C150D0409D
:1000E000CF5FDF4F49915881C250D040421753072C
:1000F00090F486EC93E0C5DFCF5FDF4F49915881E4
:10010000C250D0404F5F5F4FCE5FDF4F58834A935E
:10011000C150D040E5CF0F910F91DF91CF913F912A
:100120002F91089548ED4CBF16BF4CBF16BF789471
:100130000895843078F557B3E1E0F0E0AE2FBF2F9B
:1001400002C0AA0FBB1F8A95E2F78A2F9B2F4A2F66
:100150004095542357BB61130AC06FB7F89451B14F
:10016000542351B953B1452343B96FBF08955FB7C5
:10017000623041F4F89461B1462341B943B1842B14
:1001800083B907C0F89463B1462343B941B1842BC6
:1001900081B95FBF0895811303C04EB54F7704C086
:1001A000813019F44EB54F7D4EBD7FB7F894611381
:1001B0000AC062B141E050E001C0440F8A95EAF7FD
:1001C0004095462308C062B141E050E001C0440FB1
:1001D0008A95EAF7462B42B97FBF0895F894FFCF7E
:00000001FF
